:100000000C9462000C948A000C948A000C948A0070
:100010000C948A000C948A000C948A000C948A0038
:100020000C948A000C948A000C948A000C948A0028
:100030000C948A000C948A000C948A000C948A0018
:100040000C9423030C948A000C9493030C946D037A
:100050000C948A000C948A000C948A000C948A00F8
:100060000C94C5030C948A000000000025002800B1
:100070002B0000000000240027002A0000000000E0
:1000800023002600290004040404040404040202DA
:100090000202020203030303030301020408102007
:1000A0004080010204081020010204081020000012
:1000B0000008000201000003040700000000000027
:1000C0000000E40411241FBECFEFD8E0DEBFCDBF97
:1000D00011E0A0E0B1E0E4E0F4E102C005900D928F
:1000E000AE35B107D9F722E0AEE5B1E001C01D920F
:1000F000AB3DB207E1F710E0C2E6D0E004C02197C3
:10010000FE010E94FA09C136D107C9F70E941D05F8
:100110000C94000A0C940000E091F001F091F101C0
:10012000309729F01092ED011092EC010994089596
:10013000CF93DF93AC01E091F201F091F30130979E
:10014000F1F09091EF018091EE019817C0F090E0EE
:10015000292F30E02617370754F4D901A25ABE4F91
:10016000240F351FE90128812C939F5FF1CF109256
:10017000EF016093EE01CB01DF91CF910994DF9104
:10018000CF910895AF92BF92CF92DF92EF92FF92FC
:100190000F931F93CF93DF936C017B018B01040FAF
:1001A000151FEB015E01AE18BF08C017D10759F04B
:1001B0006991D601ED91FC910190F081E02DC6018D
:1001C0000995892B79F7C501DF91CF911F910F9187
:1001D000FF90EF90DF90CF90BF90AF900895FC011B
:1001E000538D448D252F30E0842F90E0821B930B9C
:1001F000541710F0CF96089501970895FC01918D42
:10020000828D981761F0A28DAE0FBF2FB11D5D9644
:100210008C91928D9F5F9F73928F90E008958FEFE6
:100220009FEF0895FC01918D828D981731F0828D9A
:10023000E80FF11D858D90E008958FEF9FEF0895F1
:10024000FC01918D228D892F90E0805C9F4F821B55
:1002500091098F739927089582E392E00E9420010B
:1002600021E0892B09F420E0822F089580E090E0BE
:10027000892B29F00E942C0181110C940000089513
:10028000FC01A48DA80FB92FB11DA35ABF4F2C910B
:10029000848D90E001968F739927848FA689B78902
:1002A0002C93A089B1898C91837080648C93938DF9
:1002B000848D981306C00288F389E02D80818F7D9C
:1002C00080830895EF92FF920F931F93CF93DF9354
:1002D000EC0181E0888F9B8D8C8D98131AC0E88982
:1002E000F989808185FF15C09FB7F894EE89FF8951
:1002F0006083E889F98980818370806480839FBFEF
:1003000081E090E0DF91CF911F910F91FF90EF90EE
:100310000895F62E0B8D10E00F5F1F4F0F731127FE
:10032000E02E8C8D8E110CC00FB607FCFACFE88939
:10033000F989808185FFF5CFCE010E944001F1CF80
:10034000EB8DEC0FFD2FF11DE35AFF4FF0829FB7AD
:10035000F8940B8FEA89FB8980818062CFCFCF939D
:10036000DF93EC01888D8823B9F0AA89BB89E889DD
:10037000F9898C9185FD03C0808186FD0DC00FB683
:1003800007FCF7CF8C9185FFF2CF808185FFEDCF01
:10039000CE010E944001E9CFDF91CF9108958330D3
:1003A00081F028F4813099F08230A9F008958730E7
:1003B000A9F08830C9F08430B1F4809180008F7D3D
:1003C00003C0809180008F7780938000089584B56A
:1003D0008F7784BD089584B58F7DFBCF8091B00069
:1003E0008F778093B00008958091B0008F7DF9CF12
:1003F0001F93CF93DF93282F30E0F901E255FF4F91
:100400008491F901E656FF4FD491F901EA57FF4F65
:10041000C491CC23A9F0162F81110E94CF01EC2F9B
:10042000F0E0EE0FFF1FE859FF4FA591B4918FB791
:10043000F894EC91111108C0D095DE23DC938FBFA6
:10044000DF91CF911F910895DE2BF8CF85ED80933A
:10045000BC008091BC0084FDFCCF1092EB0108959C
:1004600020919E01260F3327331F21323105ECF4F2
:100470002091EB01FC0190E080E0243069F082E003
:100480000895A0919E012191AC0142585E4FA40FA6
:10049000B52FB11D2C930196861798F380919E017C
:1004A000680F60939E0180E0089581E008950895AB
:1004B000E091EF018091EE01E81730F4F0E0E25AAC
:1004C000FE4F808190E008958FEF9FEF0895909107
:1004D000EF018091EE012FEF3FEF981748F4E92FDD
:1004E000F0E0E25AFE4F208130E09F5F9093EF01F1
:1004F000C90108958091EE019091EF01891B990B3C
:100500000895CF93DF93CB01EA01642F0E9430025C
:10051000CE01DF91CF910895CF93DF931F92CDB796
:10052000DEB7698361E0CE0101960E94300281E06E
:1005300090E00F90DF91CF9108956091F4018FECDE
:1005400092E00E948C0244E050E065E272E08FECA1
:1005500092E00C94810290E080E00895CF93DF93C5
:100560000297E9F48FEC92E00E946702EC018FECB5
:1005700092E00E9467029E01332761E0811101C071
:1005800060E0F901E050FF4F6083220F331FF90153
:10059000EE50FE4F8181DF91CF910C94F801DF91F5
:1005A000CF910895FC0101900020E9F73197AF0148
:1005B000481B590BBC0182E392E00C94C2008F925D
:1005C0009F92AF92BF920F931F93CF93DF93CDB7BC
:1005D000DEB7A1970FB6F894DEBF0FBECDBF19A24C
:1005E000423008F44AE08E010F5D1F4F842E912C9B
:1005F000B12CA12CA50194010E94D809E62FB901C4
:10060000CA01EA30F4F4E05DD801EE938D01232BAA
:10061000242B252B79F790E080E0109719F0CD017D
:100620000E94D202A1960FB6F894DEBF0FBECDBFD6
:10063000DF91CF911F910F91BF90AF909F908F90BE
:100640000895E95CE1CF1F920F920FB60F9211242B
:100650002F933F938F939F93AF93BF9380912E02DD
:1006600090912F02A0913002B091310230912D0271
:1006700023E0230F2D3758F50196A11DB11D2093BE
:100680002D0280932E0290932F02A0933002B093FC
:1006900031028091290290912A02A0912B02B091FF
:1006A0002C020196A11DB11D8093290290932A026C
:1006B000A0932B02B0932C02BF91AF919F918F9189
:1006C0003F912F910F900FBE0F901F90189526E825
:1006D000230F0296A11DB11DD2CF1F920F920FB60C
:1006E0000F9211242F933F934F935F936F937F93B8
:1006F0008F939F93AF93BF93EF93FF9382E392E027
:100700000E944001FF91EF91BF91AF919F918F9116
:100710007F916F915F914F913F912F910F900FBEFD
:100720000F901F9018951F920F920FB60F921124E1
:100730002F938F939F93EF93FF93E0914202F09159
:1007400043028081E0914802F091490282FD1BC082
:10075000908180914B028F5F8F7320914C028217A2
:1007600041F0E0914B02F0E0EE5CFD4F958F8093FD
:100770004B02FF91EF919F918F912F910F900FBEA0
:100780000F901F9018958081F4CF1F920F920FB693
:100790000F9211242F933F934F935F936F937F9307
:1007A0008F939F93AF93BF93EF93FF938091B90083
:1007B000887F803609F44AC0F0F5883209F4A7C072
:1007C00018F5803109F49BC0B8F4882309F4F9C006
:1007D000883009F494C0FF91EF91BF91AF919F9140
:1007E0008F917F916F915F914F913F912F910F90DA
:1007F0000FBE0F901F901895883109F488C0803281
:1008000051F78093C10114C0803409F49DC040F4B5
:100810008033B9F38833F9F68093C10185ECB0C019
:10082000803509F485C0883509F496C0883499F676
:100830000E942602D0CF883909F48CC038F5883759
:1008400029F050F4883611F0803729F683E0809340
:10085000EB011092C00157C0883809F47BC0803981
:1008600019F0803809F0B7CF8091C001803208F0CC
:1008700071C0E091C00181E08E0F8093C001809132
:10088000BB00F0E0E056FE4F80833DC0803B39F076
:10089000E0F4803A09F479C0883A09F09CCF84E00A
:1008A0008093EB0110929F0110929E01E091E7016D
:1008B000F091E801099580919E0181110FC081E0BE
:1008C00080939E0110927E0109C0803C09F4A6CF5E
:1008D000883C09F4A3CF883B09F07DCFE0919F01CC
:1008E00081E08E0F80939F01F0E0E258FE4F8081FF
:1008F0008093BB0090919F0180919E0129C08091BF
:10090000E4018093BB0085EC8093BC0064CF9091A0
:10091000E3018091E201981758F5E091E30181E04D
:100920008E0F8093E301F0E0EE53FE4F8081E9CF1C
:10093000E091E30181E08E0F8093E3018091BB00A1
:10094000F0E0EE53FE4F80839091E3018091E2014D
:100950009817C8F285E8D8CFE091E30181E08E0FC7
:100960008093E3018091BB00F0E0EE53FE4F808363
:100970008091EA0181115CCF81E08093E90184EAF2
:100980008093BC001092EB0126CF85EC8093BC00D5
:100990001092EB018091C001803230F4E091C001EF
:1009A000F0E0E056FE4F10826091C00170E0E091EF
:1009B000E501F091E60180EA91E009951092C0010D
:1009C0000ACF1092C10134CFE2E3F2E01382128227
:1009D00088EE93E0A0E0B0E084839583A683B7839C
:1009E00020E231E03183208325EC30E03587248715
:1009F00024EC30E03787268720EC30E0318B208BE9
:100A000021EC30E0338B228B22EC30E0358B248BD1
:100A100026EC30E0378B268B118E128E138E148EBF
:100A2000EFECF2E01382128284839583A683B7836E
:100A300082E391E0918380830895789484B5826005
:100A400084BD84B5816084BD85B5826085BD85B572
:100A5000816085BD80916E00816080936E001092F0
:100A6000810080918100826080938100809181006B
:100A700081608093810080918000816080938000FC
:100A80008091B10084608093B1008091B00081605A
:100A90008093B00080917A00846080937A00809186
:100AA0007A00826080937A0080917A0081608093DE
:100AB0007A0080917A00806880937A001092C10059
:100AC00024E131E0C5EFD1E04CE051E064E071E0B9
:100AD000DE01F901819191919F018D939D93FA011E
:100AE00001911191AF0117961C930E931697FB017C
:100AF00001911191BF0157961C930E935697992718
:100B0000FC01E656FF4F14918A579F4FFC018491D8
:100B10008823A1F090E0880F991FFC01EE58FF4F49
:100B2000E590F490FC01E859FF4F859194918FB7BF
:100B3000F894F7019081192B10838FBFF1E02C31CD
:100B40003F0709F0C6CFE5EBF0E08491E1EAF0E081
:100B50000491EDE8F0E01491112379F081110E94E5
:100B6000CF01E12FF0E0EE0FFF1FE458FF4FA591FA
:100B7000B491EC91E02381E009F480E08F5F8093F1
:100B8000F40100E011E034E0E32E31E0F32EF8014F
:100B900061918F01888122960E94F801E016F1068A
:100BA000B1F7C091F4011092EF011092EE01109292
:100BB000ED011092EC011092EB0181E08093EA01CB
:100BC0001092E90161E082E10E94F80161E083E1B5
:100BD0000E94F8018091B9008E7F8093B9008091C6
:100BE000B9008D7F8093B90088E48093B80085E4D4
:100BF0008093BC008CE890E09093E8018093E7013B
:100C000088E990E09093E6018093E501CC0FC093D2
:100C1000BA008DE992E09093F1018093F0018EEAA1
:100C200092E09093F3018093F201E0914202F091FF
:100C3000430282E08083E0913E02F0913F0286E031
:100C40008083E0914002F091410292E890831092FB
:100C50004A02E0914602F09147028083E09144020B
:100C6000F0914502808180618083E0914402F0919F
:100C70004502808188608083E0914402F0914502C2
:100C8000808180688083E0914402F09145028081F8
:100C90008F7D808385E0282E82E0382E95E2892E94
:100CA00092E0992E20E0A22E20E0B22ECDEFD1E0EE
:100CB00005E112E078016E0188898E3008F08E50CF
:100CC0008770806480937C0080917A008064809338
:100CD0007A0080917A0086FDFCCF90917800809117
:100CE0007900892798278927F5E0F89FB001F99FB7
:100CF000700D1124072E000C880B990B0E94B1086F
:100D000020E030EC4FE754E40E9407080E94790885
:100D100079876887072E000C880B990B0E94B10811
:100D200022969B01AC010E9466092B013C01F60151
:100D300060817181072E000C880B990B0E94B1080D
:100D40009B01AC01C301B2010E940708F701619346
:100D50007193819391937F012C163D0609F0ABCFDF
:100D60001092250210922602109227021092280259
:100D7000C5E1D2E060E070E0CB0129913991499161
:100D800059910E9496078C169D06B9F7609325022B
:100D90007093260280932702909328026091F401B9
:100DA00070E090E080E04AE00E94DF0280E491E0A1
:100DB0000E94D202F801C190D190E190F1908F0190
:100DC000A7019601C701B6010E94D3098823D9F073
:100DD0008EE491E00E94D2028AE491E00E94D20265
:100DE000C017D10739F78AE591E00E94D202A11419
:100DF000B10409F45BCF0E942C01882309F456CF7B
:100E00000E94000053CF26013701E89477F82FEFB6
:100E10003FEF4FE75FE7C301B2010E94D3098111A1
:100E20000DC02FEF3FEF4FE75FE7C301B2010E9414
:100E3000020818161CF482E591E0CCCF2FEF3FEFAB
:100E40004FE75FE4C701B6010E94610918161CF460
:100E500086E591E0BFCF2FEF3FEF4FE75FECC70193
:100E6000B6010E94020887FDF3CF20E030E0A9011F
:100E7000C701B6010E94020887FF09C06DE282E344
:100E800092E00E946201F7FAF094F7F8F0942AE0F9
:100E900037ED43EA5BE3C701B6010E9496072B01D9
:100EA0003C010E9480086B017C010E94AF089B01FD
:100EB000AC01C301B2010E9495072B013C014AE03D
:100EC000C701B6010E94DF026EE282E392E00E9457
:100ED000620120E030E040E251E4C301B2010E942F
:100EE00066092B013C010E9480086B01F12CE12C6A
:100EF0004AE0C701B6010E94DF02C701B6010E94A5
:100F0000AF089B01AC01C301B2010E94950720E02C
:100F100030E040E251E40E9466090E94800890E0BF
:100F200080E04AE00E94DF0257CF5058BB27AA2733
:100F30000E94AD070C9427090E94190938F00E94FD
:100F4000200920F039F49F3F19F426F40C94160977
:100F50000EF4E095E7FB0C941009E92F0E94380984
:100F600058F3BA17620773078407950720F079F4DE
:100F7000A6F50C945A090EF4E0950B2EBA2FA02D6D
:100F80000B01B90190010C01CA01A0011124FF2736
:100F9000591B99F0593F50F4503E68F11A16F04031
:100FA000A22F232F342F4427585FF3CF4695379530
:100FB0002795A795F0405395C9F77EF41F16BA0BF5
:100FC000620B730B840BBAF09150A1F0FF0FBB1FA3
:100FD000661F771F881FC2F70EC0BA0F621F731FEC
:100FE000841F48F4879577956795B795F7959E3F49
:100FF00008F0B0CF9395880F08F09927EE0F9795DA
:10100000879508950E94EC0808F481E008950E94F5
:101010001B080C9427090E94200958F00E94190906
:1010200040F029F45F3F29F00C94100951110C9401
:101030005B090C9416090E94380968F39923B1F3EF
:10104000552391F3951B550BBB27AA2762177307EE
:10105000840738F09F5F5F4F220F331F441FAA1F82
:10106000A9F335D00E2E3AF0E0E832D0915050403E
:10107000E695001CCAF72BD0FE2F29D0660F771FEC
:10108000881FBB1F261737074807AB07B0E809F0D2
:10109000BB0B802DBF01FF2793585F4F3AF09E3F57
:1010A000510578F00C9410090C945B095F3FE4F350
:1010B000983ED4F3869577956795B795F7959F5F9A
:1010C000C9F7880F911D9695879597F90895E1E0E6
:1010D000660F771F881FBB1F621773078407BA0745
:1010E00020F0621B730B840BBA0BEE1F88F7E095A0
:1010F00008950E9480086894B1110C945B090895CA
:101100000E94400988F09F5798F0B92F9927B7514E
:10111000B0F0E1F0660F771F881F991F1AF0BA959B
:10112000C9F714C0B13091F00E945A09B1E0089596
:101130000C945A09672F782F8827B85F39F0B93F88
:10114000CCF3869577956795B395D9F73EF490954E
:101150008095709561957F4F8F4F9F4F0895E894CC
:1011600009C097FB3EF490958095709561957F4FEF
:101170008F4F9F4F9923A9F0F92F96E9BB2793959D
:10118000F695879577956795B795F111F8CFFAF4AD
:10119000BB0F11F460FF1BC06F5F7F4F8F4F9F4FDE
:1011A00016C0882311F096E911C0772321F09EE83C
:1011B000872F762F05C0662371F096E8862F70E0A2
:1011C00060E02AF09A95660F771F881FDAF7880F7C
:1011D0009695879597F90895990F0008550FAA0BD2
:1011E000E0E8FEEF16161706E807F907C0F012163A
:1011F0001306E407F50798F0621B730B840B950B3D
:1012000039F40A2661F0232B242B252B21F4089591
:101210000A2609F4A140A6958FEF811D811D08952E
:1012200097F99F6780E870E060E008959FEF80EC99
:10123000089500240A94161617061806090608953C
:1012400000240A9412161306140605060895092EA2
:101250000394000C11F4882352F0BB0F40F4BF2B11
:1012600011F460FF04C06F5F7F4F8F4F9F4F089551
:1012700057FD9058440F551F59F05F3F71F0479547
:10128000880F97FB991F61F09F3F79F0879508952C
:10129000121613061406551FF2CF4695F1DF08C04B
:1012A000161617061806991FF1CF86957105610568
:1012B00008940895E894BB2766277727CB0197F910
:1012C00008950E94EC0808F48FEF08950E947909B0
:1012D0000C9427090E94190938F00E94200920F077
:1012E000952311F00C9410090C94160911240C94F8
:1012F0005B090E94380970F3959FC1F3950F50E088
:10130000551F629FF001729FBB27F00DB11D639FB7
:10131000AA27F00DB11DAA1F649F6627B00DA11D5D
:10132000661F829F2227B00DA11D621F739FB00D03
:10133000A11D621F839FA00D611D221F749F332773
:10134000A00D611D231F849F600D211D822F762F0C
:101350006A2F11249F5750409AF0F1F088234AF0E9
:10136000EE0FFF1FBB1F661F771F881F9150504055
:10137000A9F79E3F510580F00C9410090C945B096D
:101380005F3FE4F3983ED4F3869577956795B795DC
:10139000F795E7959F5FC1F7FE2B880F911D9695F6
:1013A000879597F908950E94EC08880B990B08958A
:1013B000A1E21A2EAA1BBB1BFD010DC0AA1FBB1F59
:1013C000EE1FFF1FA217B307E407F50720F0A21BCB
:1013D000B30BE40BF50B661F771F881F991F1A9438
:1013E00069F760957095809590959B01AC01BD0162
:1013F000CF010895EE0FFF1F0590F491E02D0994A1
:04140000F894FFCF8E
:10140400010101010E000F00100011000100020093
:1014140004000800020003000400050000000000AE
:101424006201C200EF00AF012001FE0012010000C2
:1014340000008C028102AB0257027A026702580252
:101444002E204461697265202D3E202020006E61AB
:0E1454006E00696E66006F7666000D0A00007D
:00000001FF
