:100000000C9458000C9480000C9480000C94800098
:100010000C9480000C9480000C9480000C94800060
:100020000C9480000C9480000C9480000C94800050
:100030000C9480000C9480000C9480000C94800040
:100040000C9492020C9480000C9402030C94DC0239
:100050000C9480000C9480000C9480000C94800020
:100060000C9434030C94800000000000250028004C
:100070002B00040404040404040402020202020229
:10008000030303030303010204081020408001025C
:1000900004081020010204081020000000080002DB
:1000A00001000003040700000000000000005304EA
:1000B00011241FBECFEFD8E0DEBFCDBF11E0A0E01E
:1000C000B1E0ECE6FCE002C005900D92A432B1076D
:1000D000D9F722E0A4E2B1E001C01D92AD38B20729
:1000E000E1F710E0C8E5D0E004C02197FE010E94CE
:1000F0002E06C735D107C9F70E948C040C9434062C
:100100000C94000090E0FC01E656FF4F2491FC01A6
:10011000EA57FF4F3491FC01EE58FF4FE491EE2374
:10012000B1F0222339F02330E9F090F4213001F1CD
:10013000223011F1F0E0EE0FFF1FE859FF4FA591BB
:10014000B4918FB7F894EC913E2B3C938FBF0895F8
:100150002730A9F02830C9F0243061F78091800061
:100160008F7D03C0809180008F7780938000E2CFE5
:1001700084B58F7784BDDECF84B58F7DFBCF809132
:10018000B0008F778093B000D5CF8091B0008F7D85
:10019000F9CF8091DA019091D901891B990B0895CB
:1001A00008950895AF92BF92CF92DF92EF92FF929F
:1001B0000F931F93CF93DF936C017B018B01040F8F
:1001C000151FEB015E01AE18BF08C017D10759F02B
:1001D0006991D601ED91FC910190F081E02DC6016D
:1001E0000995892B79F7C501DF91CF911F910F9167
:1001F000FF90EF90DF90CF90BF90AF900895FC01FB
:10020000538D448D252F30E0842F90E0821B930B7B
:10021000541710F0CF96089501970895FC01918D21
:10022000828D981761F0A28DAE0FBF2FB11D5D9624
:100230008C91928D9F5F9F73928F90E008958FEFC6
:100240009FEF0895FC01918D828D981731F0828D7A
:10025000E80FF11D858D90E008958FEF9FEF0895D1
:10026000FC01918D228D892F90E0805C9F4F821B35
:1002700091098F739927089584EE91E00E943001CF
:1002800021E0892B09F420E0822F089580E090E09E
:10029000892B29F00E943C0181110C9400000895E3
:1002A000FC01A48DA80FB92FB11DA35ABF4F2C91EB
:1002B000848D90E001968F739927848FA689B789E2
:1002C0002C93A089B1898C91837080648C93938DD9
:1002D000848D981306C00288F389E02D80818F7D7C
:1002E00080830895EF92FF920F931F93CF93DF9334
:1002F000EC0181E0888F9B8D8C8D98131AC0E88962
:10030000F989808185FF15C09FB7F894EE89FF8930
:100310006083E889F98980818370806480839FBFCE
:1003200081E090E0DF91CF911F910F91FF90EF90CE
:100330000895F62E0B8D10E00F5F1F4F0F731127DE
:10034000E02E8C8D8E110CC00FB607FCFACFE88919
:10035000F989808185FFF5CFCE010E945001F1CF50
:10036000EB8DEC0FFD2FF11DE35AFF4FF0829FB78D
:10037000F8940B8FEA89FB8980818062CFCFCF937D
:10038000DF93EC01888D8823B9F0AA89BB89E889BD
:10039000F9898C9185FD03C0808186FD0DC00FB663
:1003A00007FCF7CF8C9185FFF2CF808185FFEDCFE1
:1003B000CE010E945001E9CFDF91CF91089585EDE4
:1003C0008093BC008091BC0084FDFCCF1092B801EA
:1003D000089520914401260F3327331F2132310520
:1003E000ECF42091B801FC0190E080E0243069F049
:1003F00082E00895A09144012191AC014C5D5E4FD3
:10040000A40FB52FB11D2C930196861798F38091F8
:100410004401680F6093440180E0089581E00895ED
:100420000895E091D9018091DA01E81730F4F0E005
:10043000E754FE4F808190E008958FEF9FEF08957D
:100440009091D9018091DA012FEF3FEF981748F48E
:10045000E92FF0E0E754FE4F208130E09F5F90935A
:10046000D901C9010895CF92DF92EF92FF920F93C5
:100470001F93CF93DF937C01CB018A0120918E01E2
:10048000222389F0EB016B01C40ED51ECC15DD05CE
:1004900069F06991D701ED91FC910190F081E02D17
:1004A000C7010995F3CF642F0E94E901C801DF91CC
:1004B000CF911F910F91FF90EF90DF90CF90089513
:1004C000CF93DF931F92CDB7DEB7698320918E0162
:1004D0002223F9F020918B01203258F021E030E006
:1004E000FC013383228390E080E00F90DF91CF9175
:1004F000089580918C01E82FF0E0E559FE4F998135
:1005000090838F5F80938C0180938B0181E090E0DA
:10051000ECCF61E0CE0101960E94E901F7CF90E0B7
:1005200080E008951F920F920FB60F9211242F931F
:100530003F938F939F93AF93BF938091E0019091EE
:10054000E101A091E201B091E3013091DF0123E0EC
:10055000230F2D3758F50196A11DB11D2093DF0102
:100560008093E0019093E101A093E201B093E30155
:100570008091DB019091DC01A091DD01B091DE0161
:100580000196A11DB11D8093DB019093DC01A09326
:10059000DD01B093DE01BF91AF919F918F913F91AB
:1005A0002F910F900FBE0F901F90189526E8230FE4
:1005B0000296A11DB11DD2CF1F920F920FB60F92BE
:1005C00011242F933F934F935F936F937F938F9358
:1005D0009F93AF93BF93EF93FF9384EE91E00E94BC
:1005E0005001FF91EF91BF91AF919F918F917F91BA
:1005F0006F915F914F913F912F910F900FBE0F9090
:100600001F9018951F920F920FB60F9211242F93DF
:100610008F939F93EF93FF93E091F401F091F50195
:100620008081E091FA01F091FB0182FD1BC0908175
:100630008091FD018F5F8F732091FE01821741F041
:10064000E091FD01F0E0EC51FE4F958F8093FD01AC
:10065000FF91EF919F918F912F910F900FBE0F906F
:100660001F9018958081F4CF1F920F920FB60F92B2
:1006700011242F933F934F935F936F937F938F93A7
:100680009F93AF93BF93EF93FF938091B900887FBF
:10069000803609F44AC0F0F5883209F4A7C018F58D
:1006A000803109F49BC0B8F4882309F4F9C088307C
:1006B00009F494C0FF91EF91BF91AF919F918F91F9
:1006C0007F916F915F914F913F912F910F900FBE4E
:1006D0000F901F901895883109F488C0803251F727
:1006E0008093B60114C0803409F49DC040F4803377
:1006F000B9F38833F9F68093B60185ECB0C0803544
:1007000009F485C0883509F496C0883499F60E94AA
:10071000DF01D0CF883909F48CC038F5883729F04B
:1007200050F4883611F0803729F683E08093B801C1
:100730001092660157C0883809F47BC0803919F0DF
:10074000803809F0B7CF80916601803208F071C01F
:10075000E091660181E08E0F809366018091BB007D
:10076000F0E0EA5BFE4F80833DC0803B39F0E0F46F
:10077000803A09F479C0883A09F09CCF84E08093EC
:10078000B8011092450110924401E0916901F09185
:100790006A0109958091440181110FC081E0809325
:1007A00044011092240109C0803C09F4A6CF883C82
:1007B00009F4A3CF883B09F07DCFE091450181E0AA
:1007C0008E0F80934501F0E0EC5DFE4F80818093B9
:1007D000BB00909145018091440129C08091B301F3
:1007E0008093BB0085EC8093BC0064CF9091B501F1
:1007F0008091B401981758F5E091B50181E08E0F12
:100800008093B501F0E0EE56FE4F8081E9CFE09194
:10081000B50181E08E0F8093B5018091BB00F0E0BF
:10082000EE56FE4F80839091B5018091B4019817E8
:10083000C8F285E8D8CFE091B50181E08E0F8093B2
:10084000B5018091BB00F0E0EE56FE4F80838091B1
:10085000B70181115CCF81E08093B20184EA80937B
:10086000BC001092B80126CF85EC8093BC0010929A
:10087000B80180916601803230F4E0916601F0E0C9
:10088000EA5BFE4F10826091660170E0E0916701C3
:10089000F091680186E491E00995109266010ACF13
:1008A0001092B60134CFE4EEF1E01382128288EEAA
:1008B00093E0A0E0B0E084839583A683B78324E02F
:1008C00031E03183208325EC30E03587248724EC28
:1008D00030E03787268720EC30E0318B208B21EC0D
:1008E00030E0338B228B22EC30E0358B248B26ECEE
:1008F00030E0378B268B118E128E138E148EE1E82A
:10090000F2E01382128284839583A683B78386E103
:1009100091E0918380830895789484B5826084BD4A
:1009200084B5816084BD85B5826085BD85B58160F3
:1009300085BD80916E00816080936E001092810071
:10094000809181008260809381008091810081602C
:1009500080938100809180008160809380008091ED
:10096000B10084608093B1008091B0008160809379
:10097000B00080917A00846080937A0080917A0040
:10098000826080937A0080917A00816080937A00FF
:1009900080917A00806880937A001092C100109252
:1009A000D9011092DA0110928C0110928B011092F1
:1009B000B80181E08093B7011092B20182E10E94F8
:1009C000820083E10E9482008091B9008E7F809333
:1009D000B9008091B9008D7F8093B90088E480933D
:1009E000B80085E48093BC0080ED90E090936A01AC
:1009F0008093690181ED90E0909368018093670195
:100A000088EF8093B800E091F401F091F50182E065
:100A10008083E091F001F091F10186E08083E09124
:100A2000F201F091F30192E890831092FC01E091C1
:100A3000F801F091F9018083E091F601F091F7015E
:100A4000808180618083E091F601F091F7018081DF
:100A500088608083E091F601F091F70180818068E1
:100A60008083E091F601F091F70180818F7D808392
:100A700035EED32E45ECC42E00E010E0BB24BA9432
:100A8000D1E024E0A22E92E0992E84EE91E00E9423
:100A90003001C2E0039709F07EC084EE91E00E942D
:100AA0000E01C82F80938F0184EE91E00E940E0109
:100AB000E82E8093900184EE91E00E940E01F82EC2
:100AC00080939101D0938E01C0938D0110928C017F
:100AD00010928B016E2D81E892E00E9460026F2DD2
:100AE00081E892E00E94600290918B019132D0F5F2
:100AF0008091B8018111FCCF9092B801D093B701D9
:100B0000B092B6011092B5019093B401ABE6B1E09A
:100B1000E2E9F1E0981338C01092B3018091B3017B
:100B2000CC0FC82BC093B3018091B201813081F505
:100B30001092B2018091B3018093BB008091BC0000
:100B400083FDF8CFC092BC008091B8018230E1F300
:100B50008091B6018F3F31F08091B601803211F063
:100B60008091B60110928C0110928B0110928E012F
:100B70000115110509F489CF0E943C01882309F46D
:100B800082CF0E9400007DCF2D9121938F5FC2CF35
:100B9000D092BC00D9CF8091B8018111FCCFD09305
:100BA000B801D093B701B092B6011092B501A092EE
:100BB000B401D093B3018091B3018C2B8093B30126
:100BC0008091B201813009F042C01092B20180914F
:100BD000B3018093BB008091BC0083FDF8CFC0922D
:100BE000BC008091B8018130E1F38091B50195E0BE
:100BF000853010F49091B501E2E9F1E0A9EBB1E0A4
:100C000080E0891327C01092D9018093DA018823EC
:100C1000C9F081E892E00E942002682F84EE91E002
:100C20000E94720184E0E82EF12C81E892E00E949B
:100C30002002682F84EE91E00E94720181E0E81AA0
:100C4000F10899F7CE5FC63009F0A5CF91CFD092C9
:100C5000BC00C7CF21912D938F5FD3CFEE0FFF1F25
:0C0C60000590F491E02D0994F894FFCF6A
:100C6C00000000007201D200FF00BF0130010E0134
:100C7C00220100000000600233028F021002C90042
:040C8C00200211022F
:00000001FF
